{
  "contractName": "Producer",
  "abi": [
    {
      "constant": false,
      "inputs": [
        {
          "internalType": "address",
          "name": "newProducer",
          "type": "address"
        }
      ],
      "name": "addProducer",
      "outputs": [],
      "payable": false,
      "stateMutability": "nonpayable",
      "type": "function"
    },
    {
      "constant": true,
      "inputs": [],
      "name": "isProducer",
      "outputs": [
        {
          "internalType": "bool",
          "name": "",
          "type": "bool"
        }
      ],
      "payable": false,
      "stateMutability": "view",
      "type": "function"
    }
  ],
  "bytecode": "0x608060405234801561001057600080fd5b50610253806100206000396000f3fe608060405234801561001057600080fd5b50600436106100365760003560e01c80635f515a3a1461003b578063ddf801661461005d575b600080fd5b6100436100a1565b604051808215151515815260200191505060405180910390f35b61009f6004803603602081101561007357600080fd5b81019080803573ffffffffffffffffffffffffffffffffffffffff1690602001909291905050506100bc565b005b60006100b733600061013d90919063ffffffff16565b905090565b6100d081600061013d90919063ffffffff16565b15610126576040517f08c379a000000000000000000000000000000000000000000000000000000000815260040180806020018281038252602a8152602001806101f5602a913960400191505060405180910390fd5b61013a81600061019690919063ffffffff16565b50565b60008260000160008373ffffffffffffffffffffffffffffffffffffffff1673ffffffffffffffffffffffffffffffffffffffff16815260200190815260200160002060009054906101000a900460ff16905092915050565b60018260000160008373ffffffffffffffffffffffffffffffffffffffff1673ffffffffffffffffffffffffffffffffffffffff16815260200190815260200160002060006101000a81548160ff021916908315150217905550505056fe50726f647563657220776974682074686973206164647265737320616c72656164792065786973747321a265627a7a723158202ad1611a6d1e253e58a1160d142452c0ee0523751463ff041e31740531945ecf64736f6c63430005100032",
  "source": "// SPDX-License-Identifier: MIT\r\npragma solidity >=0.4.21 <0.9.0;\r\n\r\nimport \"./Users.sol\";\r\n\r\n/**\r\n * @title Producer\r\n * @dev Handles producer functions.\r\n */\r\ncontract Producer {\r\n   \r\n    using Users for Users.User;\r\n    Users.User private producers;\r\n\r\n    function addProducer(address newProducer) public {\r\n        require(!producers.isExistingUser(newProducer), \"Producer with this address already exists!\");\r\n        producers.addUser(newProducer);\r\n    }\r\n\r\n    function isProducer() public view returns (bool) {\r\n        return producers.isExistingUser(msg.sender);\r\n    }\r\n}\r\n",
  "sourcePath": "D:\\blockchain-scm\\contracts\\Producer.sol",
  "compiler": {
    "name": "solc",
    "version": "0.5.16+commit.9c3226ce.Emscripten.clang"
  },
  "schemaVersion": "3.4.14",
  "updatedAt": "2023-06-07T16:09:08.578Z",
  "networkType": "ethereum",
  "devdoc": {
    "details": "Handles producer functions.",
    "methods": {},
    "title": "Producer"
  },
  "userdoc": {
    "methods": {}
  }
}