{
  "contractName": "SupplyChainLifecycle",
  "abi": [
    {
      "inputs": [],
      "payable": true,
      "stateMutability": "payable",
      "type": "constructor"
    },
    {
      "anonymous": false,
      "inputs": [
        {
          "indexed": false,
          "internalType": "uint256",
          "name": "productID",
          "type": "uint256"
        }
      ],
      "name": "Paid",
      "type": "event"
    },
    {
      "anonymous": false,
      "inputs": [
        {
          "indexed": false,
          "internalType": "uint256",
          "name": "productID",
          "type": "uint256"
        }
      ],
      "name": "PickedUp",
      "type": "event"
    },
    {
      "anonymous": false,
      "inputs": [
        {
          "indexed": false,
          "internalType": "uint256",
          "name": "productID",
          "type": "uint256"
        }
      ],
      "name": "Produced",
      "type": "event"
    },
    {
      "anonymous": false,
      "inputs": [
        {
          "indexed": false,
          "internalType": "uint256",
          "name": "productID",
          "type": "uint256"
        }
      ],
      "name": "ReadyForPickup",
      "type": "event"
    },
    {
      "anonymous": false,
      "inputs": [
        {
          "indexed": false,
          "internalType": "uint256",
          "name": "productID",
          "type": "uint256"
        }
      ],
      "name": "ReadyForSale",
      "type": "event"
    },
    {
      "anonymous": false,
      "inputs": [
        {
          "indexed": false,
          "internalType": "uint256",
          "name": "productID",
          "type": "uint256"
        }
      ],
      "name": "ShipmentReceived",
      "type": "event"
    },
    {
      "anonymous": false,
      "inputs": [
        {
          "indexed": false,
          "internalType": "uint256",
          "name": "productID",
          "type": "uint256"
        }
      ],
      "name": "ShipmentReleased",
      "type": "event"
    },
    {
      "anonymous": false,
      "inputs": [
        {
          "indexed": false,
          "internalType": "uint256",
          "name": "productID",
          "type": "uint256"
        }
      ],
      "name": "Sold",
      "type": "event"
    },
    {
      "constant": false,
      "inputs": [
        {
          "internalType": "address",
          "name": "newDistributor",
          "type": "address"
        }
      ],
      "name": "addDistributor",
      "outputs": [],
      "payable": false,
      "stateMutability": "nonpayable",
      "type": "function"
    },
    {
      "constant": false,
      "inputs": [
        {
          "internalType": "address",
          "name": "newProducer",
          "type": "address"
        }
      ],
      "name": "addProducer",
      "outputs": [],
      "payable": false,
      "stateMutability": "nonpayable",
      "type": "function"
    },
    {
      "constant": false,
      "inputs": [
        {
          "internalType": "address",
          "name": "newRetailer",
          "type": "address"
        }
      ],
      "name": "addRetailer",
      "outputs": [],
      "payable": false,
      "stateMutability": "nonpayable",
      "type": "function"
    },
    {
      "constant": true,
      "inputs": [],
      "name": "isDistributor",
      "outputs": [
        {
          "internalType": "bool",
          "name": "",
          "type": "bool"
        }
      ],
      "payable": false,
      "stateMutability": "view",
      "type": "function"
    },
    {
      "constant": true,
      "inputs": [],
      "name": "isProducer",
      "outputs": [
        {
          "internalType": "bool",
          "name": "",
          "type": "bool"
        }
      ],
      "payable": false,
      "stateMutability": "view",
      "type": "function"
    },
    {
      "constant": true,
      "inputs": [],
      "name": "isRetailer",
      "outputs": [
        {
          "internalType": "bool",
          "name": "",
          "type": "bool"
        }
      ],
      "payable": false,
      "stateMutability": "view",
      "type": "function"
    },
    {
      "constant": true,
      "inputs": [
        {
          "internalType": "uint256",
          "name": "",
          "type": "uint256"
        }
      ],
      "name": "products",
      "outputs": [
        {
          "internalType": "enum SupplyChainLifecycle.Status",
          "name": "productStatus",
          "type": "uint8"
        },
        {
          "internalType": "address",
          "name": "currentStatusUser",
          "type": "address"
        },
        {
          "internalType": "uint256",
          "name": "productId",
          "type": "uint256"
        },
        {
          "internalType": "string",
          "name": "productName",
          "type": "string"
        },
        {
          "internalType": "string",
          "name": "productDesc",
          "type": "string"
        },
        {
          "internalType": "uint256",
          "name": "productPrice",
          "type": "uint256"
        },
        {
          "internalType": "uint256",
          "name": "productQuantity",
          "type": "uint256"
        },
        {
          "internalType": "address",
          "name": "producerAddress",
          "type": "address"
        },
        {
          "internalType": "address",
          "name": "distributorAddress",
          "type": "address"
        },
        {
          "internalType": "address",
          "name": "retailerAddresses",
          "type": "address"
        },
        {
          "internalType": "address",
          "name": "consumerAddress",
          "type": "address"
        }
      ],
      "payable": false,
      "stateMutability": "view",
      "type": "function"
    },
    {
      "constant": false,
      "inputs": [
        {
          "internalType": "string",
          "name": "prodName",
          "type": "string"
        },
        {
          "internalType": "string",
          "name": "prodDesc",
          "type": "string"
        },
        {
          "internalType": "uint256",
          "name": "prodPrice",
          "type": "uint256"
        },
        {
          "internalType": "uint256",
          "name": "prodQty",
          "type": "uint256"
        },
        {
          "internalType": "address",
          "name": "producerAdd",
          "type": "address"
        }
      ],
      "name": "produceProduct",
      "outputs": [],
      "payable": false,
      "stateMutability": "nonpayable",
      "type": "function"
    },
    {
      "constant": false,
      "inputs": [
        {
          "internalType": "uint256",
          "name": "prodId",
          "type": "uint256"
        }
      ],
      "name": "markProductReadyForPickup",
      "outputs": [],
      "payable": false,
      "stateMutability": "nonpayable",
      "type": "function"
    },
    {
      "constant": false,
      "inputs": [
        {
          "internalType": "uint256",
          "name": "prodId",
          "type": "uint256"
        }
      ],
      "name": "pickUpProduct",
      "outputs": [],
      "payable": false,
      "stateMutability": "nonpayable",
      "type": "function"
    },
    {
      "constant": false,
      "inputs": [
        {
          "internalType": "uint256",
          "name": "prodId",
          "type": "uint256"
        }
      ],
      "name": "buyProduct",
      "outputs": [],
      "payable": true,
      "stateMutability": "payable",
      "type": "function"
    },
    {
      "constant": false,
      "inputs": [
        {
          "internalType": "uint256",
          "name": "prodId",
          "type": "uint256"
        }
      ],
      "name": "releaseProductShipment",
      "outputs": [],
      "payable": false,
      "stateMutability": "nonpayable",
      "type": "function"
    },
    {
      "constant": false,
      "inputs": [
        {
          "internalType": "uint256",
          "name": "prodId",
          "type": "uint256"
        }
      ],
      "name": "receiveProductShipment",
      "outputs": [],
      "payable": false,
      "stateMutability": "nonpayable",
      "type": "function"
    },
    {
      "constant": false,
      "inputs": [
        {
          "internalType": "uint256",
          "name": "prodId",
          "type": "uint256"
        }
      ],
      "name": "markProductReadyForSale",
      "outputs": [],
      "payable": false,
      "stateMutability": "nonpayable",
      "type": "function"
    },
    {
      "constant": false,
      "inputs": [
        {
          "internalType": "uint256",
          "name": "prodId",
          "type": "uint256"
        }
      ],
      "name": "sellProductToConsumer",
      "outputs": [],
      "payable": true,
      "stateMutability": "payable",
      "type": "function"
    },
    {
      "constant": true,
      "inputs": [
        {
          "internalType": "uint256",
          "name": "prodId",
          "type": "uint256"
        }
      ],
      "name": "getProductDetails",
      "outputs": [
        {
          "components": [
            {
              "internalType": "enum SupplyChainLifecycle.Status",
              "name": "productStatus",
              "type": "uint8"
            },
            {
              "internalType": "address",
              "name": "currentStatusUser",
              "type": "address"
            },
            {
              "internalType": "uint256",
              "name": "productId",
              "type": "uint256"
            },
            {
              "internalType": "string",
              "name": "productName",
              "type": "string"
            },
            {
              "internalType": "string",
              "name": "productDesc",
              "type": "string"
            },
            {
              "internalType": "uint256",
              "name": "productPrice",
              "type": "uint256"
            },
            {
              "internalType": "uint256",
              "name": "productQuantity",
              "type": "uint256"
            },
            {
              "internalType": "address",
              "name": "producerAddress",
              "type": "address"
            },
            {
              "internalType": "address",
              "name": "distributorAddress",
              "type": "address"
            },
            {
              "internalType": "address",
              "name": "retailerAddresses",
              "type": "address"
            },
            {
              "internalType": "address",
              "name": "consumerAddress",
              "type": "address"
            }
          ],
          "internalType": "struct SupplyChainLifecycle.Product",
          "name": "",
          "type": "tuple"
        }
      ],
      "payable": false,
      "stateMutability": "view",
      "type": "function"
    },
    {
      "constant": true,
      "inputs": [],
      "name": "getAllProductDetails",
      "outputs": [
        {
          "components": [
            {
              "internalType": "enum SupplyChainLifecycle.Status",
              "name": "productStatus",
              "type": "uint8"
            },
            {
              "internalType": "address",
              "name": "currentStatusUser",
              "type": "address"
            },
            {
              "internalType": "uint256",
              "name": "productId",
              "type": "uint256"
            },
            {
              "internalType": "string",
              "name": "productName",
              "type": "string"
            },
            {
              "internalType": "string",
              "name": "productDesc",
              "type": "string"
            },
            {
              "internalType": "uint256",
              "name": "productPrice",
              "type": "uint256"
            },
            {
              "internalType": "uint256",
              "name": "productQuantity",
              "type": "uint256"
            },
            {
              "internalType": "address",
              "name": "producerAddress",
              "type": "address"
            },
            {
              "internalType": "address",
              "name": "distributorAddress",
              "type": "address"
            },
            {
              "internalType": "address",
              "name": "retailerAddresses",
              "type": "address"
            },
            {
              "internalType": "address",
              "name": "consumerAddress",
              "type": "address"
            }
          ],
          "internalType": "struct SupplyChainLifecycle.Product[]",
          "name": "",
          "type": "tuple[]"
        }
      ],
      "payable": false,
      "stateMutability": "view",
      "type": "function"
    }
  ],
  "bytecode": "0x608060405260006003819055506128348061001b6000396000f3fe6080604052600436106100fe5760003560e01c80637acc0b2011610095578063a9a59f3211610064578063a9a59f321461030f578063b72c946e14610338578063d77bc92014610361578063ddf801661461038a578063ee43ec40146103b3576100fe565b80637acc0b20146102675780638642269e146102ae5780638ec4f505146102ca578063a395b026146102f3576100fe565b80635aed9c22116100d15780635aed9c22146101ab5780635f515a3a146101d65780636813b53b146102015780637250e2241461023e576100fe565b80630997a514146101035780632f2a68d61461012e57806344253a2814610157578063477ba64514610180575b600080fd5b34801561010f57600080fd5b506101186103dc565b6040516101259190612446565b60405180910390f35b34801561013a57600080fd5b5061015560048036036101509190810190611e53565b6103f7565b005b34801561016357600080fd5b5061017e60048036036101799190810190611dac565b610515565b005b34801561018c57600080fd5b5061019561088f565b6040516101a29190612446565b60405180910390f35b3480156101b757600080fd5b506101c06108aa565b6040516101cd9190612424565b60405180910390f35b3480156101e257600080fd5b506101eb610c47565b6040516101f89190612446565b60405180910390f35b34801561020d57600080fd5b5061022860048036036102239190810190611e53565b610c62565b60405161023591906125fa565b60405180910390f35b34801561024a57600080fd5b5061026560048036036102609190810190611d83565b610fd5565b005b34801561027357600080fd5b5061028e60048036036102899190810190611e53565b611040565b6040516102a59b9a99989796959493929190612461565b60405180910390f35b6102c860048036036102c39190810190611e53565b611284565b005b3480156102d657600080fd5b506102f160048036036102ec9190810190611d83565b6113b1565b005b61030d60048036036103089190810190611e53565b61141c565b005b34801561031b57600080fd5b5061033660048036036103319190810190611e53565b61153a565b005b34801561034457600080fd5b5061035f600480360361035a9190810190611e53565b6116b5565b005b34801561036d57600080fd5b5061038860048036036103839190810190611e53565b6117d3565b005b34801561039657600080fd5b506103b160048036036103ac9190810190611d83565b61194d565b005b3480156103bf57600080fd5b506103da60048036036103d59190810190611e53565b6119b8565b005b60006103f2336002611ad690919063ffffffff16565b905090565b6103ff610c47565b61043e576040517f08c379a00000000000000000000000000000000000000000000000000000000081526004016104359061255a565b60405180910390fd5b60016004828154811061044d57fe5b90600052602060002090600a020160000160006101000a81548160ff0219169083600781111561047957fe5b0217905550336004828154811061048c57fe5b90600052602060002090600a020160000160016101000a81548173ffffffffffffffffffffffffffffffffffffffff021916908373ffffffffffffffffffffffffffffffffffffffff1602179055507ffa5cddf457a1228b4407a93573223bbd9eb1bd17b01ea96d5c3ef190354a73a68160405161050a919061261c565b60405180910390a150565b61051d610c47565b61055c576040517f08c379a00000000000000000000000000000000000000000000000000000000081526004016105539061255a565b60405180910390fd5b60046040518061016001604052806000600781111561057757fe5b81526020018373ffffffffffffffffffffffffffffffffffffffff16815260200160035481526020018781526020018681526020018581526020018481526020018373ffffffffffffffffffffffffffffffffffffffff168152602001600073ffffffffffffffffffffffffffffffffffffffff168152602001600073ffffffffffffffffffffffffffffffffffffffff168152602001600073ffffffffffffffffffffffffffffffffffffffff168152509080600181540180825580915050906001820390600052602060002090600a02016000909192909190915060008201518160000160006101000a81548160ff0219169083600781111561067857fe5b021790555060208201518160000160016101000a81548173ffffffffffffffffffffffffffffffffffffffff021916908373ffffffffffffffffffffffffffffffffffffffff1602179055506040820151816001015560608201518160020190805190602001906106ea929190611b8d565b506080820151816003019080519060200190610707929190611b8d565b5060a0820151816004015560c0820151816005015560e08201518160060160006101000a81548173ffffffffffffffffffffffffffffffffffffffff021916908373ffffffffffffffffffffffffffffffffffffffff1602179055506101008201518160070160006101000a81548173ffffffffffffffffffffffffffffffffffffffff021916908373ffffffffffffffffffffffffffffffffffffffff1602179055506101208201518160080160006101000a81548173ffffffffffffffffffffffffffffffffffffffff021916908373ffffffffffffffffffffffffffffffffffffffff1602179055506101408201518160090160006101000a81548173ffffffffffffffffffffffffffffffffffffffff021916908373ffffffffffffffffffffffffffffffffffffffff16021790555050505060016003600082825401925050819055507f9d1715437821cd9a90cba5d1a68995c308d9ad9afc754ed9a1cff429760796e6600354604051610880919061261c565b60405180910390a15050505050565b60006108a5336001611ad690919063ffffffff16565b905090565b60606004805480602002602001604051908101604052809291908181526020016000905b82821015610c3e57838290600052602060002090600a0201604051806101600160405290816000820160009054906101000a900460ff16600781111561091057fe5b600781111561091b57fe5b81526020016000820160019054906101000a900473ffffffffffffffffffffffffffffffffffffffff1673ffffffffffffffffffffffffffffffffffffffff1673ffffffffffffffffffffffffffffffffffffffff16815260200160018201548152602001600282018054600181600116156101000203166002900480601f016020809104026020016040519081016040528092919081815260200182805460018160011615610100020316600290048015610a185780601f106109ed57610100808354040283529160200191610a18565b820191906000526020600020905b8154815290600101906020018083116109fb57829003601f168201915b50505050508152602001600382018054600181600116156101000203166002900480601f016020809104026020016040519081016040528092919081815260200182805460018160011615610100020316600290048015610aba5780601f10610a8f57610100808354040283529160200191610aba565b820191906000526020600020905b815481529060010190602001808311610a9d57829003601f168201915b5050505050815260200160048201548152602001600582015481526020016006820160009054906101000a900473ffffffffffffffffffffffffffffffffffffffff1673ffffffffffffffffffffffffffffffffffffffff1673ffffffffffffffffffffffffffffffffffffffff1681526020016007820160009054906101000a900473ffffffffffffffffffffffffffffffffffffffff1673ffffffffffffffffffffffffffffffffffffffff1673ffffffffffffffffffffffffffffffffffffffff1681526020016008820160009054906101000a900473ffffffffffffffffffffffffffffffffffffffff1673ffffffffffffffffffffffffffffffffffffffff1673ffffffffffffffffffffffffffffffffffffffff1681526020016009820160009054906101000a900473ffffffffffffffffffffffffffffffffffffffff1673ffffffffffffffffffffffffffffffffffffffff1673ffffffffffffffffffffffffffffffffffffffff1681525050815260200190600101906108ce565b50505050905090565b6000610c5d336000611ad690919063ffffffff16565b905090565b610c6a611c0d565b60048281548110610c7757fe5b90600052602060002090600a0201604051806101600160405290816000820160009054906101000a900460ff166007811115610caf57fe5b6007811115610cba57fe5b81526020016000820160019054906101000a900473ffffffffffffffffffffffffffffffffffffffff1673ffffffffffffffffffffffffffffffffffffffff1673ffffffffffffffffffffffffffffffffffffffff16815260200160018201548152602001600282018054600181600116156101000203166002900480601f016020809104026020016040519081016040528092919081815260200182805460018160011615610100020316600290048015610db75780601f10610d8c57610100808354040283529160200191610db7565b820191906000526020600020905b815481529060010190602001808311610d9a57829003601f168201915b50505050508152602001600382018054600181600116156101000203166002900480601f016020809104026020016040519081016040528092919081815260200182805460018160011615610100020316600290048015610e595780601f10610e2e57610100808354040283529160200191610e59565b820191906000526020600020905b815481529060010190602001808311610e3c57829003601f168201915b5050505050815260200160048201548152602001600582015481526020016006820160009054906101000a900473ffffffffffffffffffffffffffffffffffffffff1673ffffffffffffffffffffffffffffffffffffffff1673ffffffffffffffffffffffffffffffffffffffff1681526020016007820160009054906101000a900473ffffffffffffffffffffffffffffffffffffffff1673ffffffffffffffffffffffffffffffffffffffff1673ffffffffffffffffffffffffffffffffffffffff1681526020016008820160009054906101000a900473ffffffffffffffffffffffffffffffffffffffff1673ffffffffffffffffffffffffffffffffffffffff1673ffffffffffffffffffffffffffffffffffffffff1681526020016009820160009054906101000a900473ffffffffffffffffffffffffffffffffffffffff1673ffffffffffffffffffffffffffffffffffffffff1673ffffffffffffffffffffffffffffffffffffffff16815250509050919050565b610fe9816002611ad690919063ffffffff16565b15611029576040517f08c379a0000000000000000000000000000000000000000000000000000000008152600401611020906125da565b60405180910390fd5b61103d816002611b2f90919063ffffffff16565b50565b6004818154811061104d57fe5b90600052602060002090600a02016000915090508060000160009054906101000a900460ff16908060000160019054906101000a900473ffffffffffffffffffffffffffffffffffffffff1690806001015490806002018054600181600116156101000203166002900480601f0160208091040260200160405190810160405280929190818152602001828054600181600116156101000203166002900480156111385780601f1061110d57610100808354040283529160200191611138565b820191906000526020600020905b81548152906001019060200180831161111b57829003601f168201915b505050505090806003018054600181600116156101000203166002900480601f0160208091040260200160405190810160405280929190818152602001828054600181600116156101000203166002900480156111d65780601f106111ab576101008083540402835291602001916111d6565b820191906000526020600020905b8154815290600101906020018083116111b957829003601f168201915b5050505050908060040154908060050154908060060160009054906101000a900473ffffffffffffffffffffffffffffffffffffffff16908060070160009054906101000a900473ffffffffffffffffffffffffffffffffffffffff16908060080160009054906101000a900473ffffffffffffffffffffffffffffffffffffffff16908060090160009054906101000a900473ffffffffffffffffffffffffffffffffffffffff1690508b565b61128c61088f565b8061129b575061129a6103dc565b5b6112da576040517f08c379a00000000000000000000000000000000000000000000000000000000081526004016112d1906125ba565b60405180910390fd5b6006600482815481106112e957fe5b90600052602060002090600a020160000160006101000a81548160ff0219169083600781111561131557fe5b0217905550336004828154811061132857fe5b90600052602060002090600a020160000160016101000a81548173ffffffffffffffffffffffffffffffffffffffff021916908373ffffffffffffffffffffffffffffffffffffffff1602179055507f581d416ae9dff30c9305c2b35cb09ed5991897ab97804db29ccf92678e953160816040516113a6919061261c565b60405180910390a150565b6113c5816001611ad690919063ffffffff16565b15611405576040517f08c379a00000000000000000000000000000000000000000000000000000000081526004016113fc9061257a565b60405180910390fd5b611419816001611b2f90919063ffffffff16565b50565b61142461088f565b611463576040517f08c379a000000000000000000000000000000000000000000000000000000000815260040161145a9061259a565b60405180910390fd5b60076004828154811061147257fe5b90600052602060002090600a020160000160006101000a81548160ff0219169083600781111561149e57fe5b021790555033600482815481106114b157fe5b90600052602060002090600a020160000160016101000a81548173ffffffffffffffffffffffffffffffffffffffff021916908373ffffffffffffffffffffffffffffffffffffffff1602179055507f92f64ca637d023f354075a4be751b169c1a8a9ccb6d33cdd0cb35205439957278160405161152f919061261c565b60405180910390a150565b6115426103dc565b611581576040517f08c379a00000000000000000000000000000000000000000000000000000000081526004016115789061253a565b60405180910390fd5b60026004828154811061159057fe5b90600052602060002090600a020160000160006101000a81548160ff021916908360078111156115bc57fe5b021790555033600482815481106115cf57fe5b90600052602060002090600a020160000160016101000a81548173ffffffffffffffffffffffffffffffffffffffff021916908373ffffffffffffffffffffffffffffffffffffffff160217905550336004828154811061162c57fe5b90600052602060002090600a020160070160006101000a81548173ffffffffffffffffffffffffffffffffffffffff021916908373ffffffffffffffffffffffffffffffffffffffff1602179055507f083ec4064b35087af011df34f3d207f4f7f619945bf47aac7151dc1bb26cbcec816040516116aa919061261c565b60405180910390a150565b6116bd6103dc565b6116fc576040517f08c379a00000000000000000000000000000000000000000000000000000000081526004016116f39061253a565b60405180910390fd5b60036004828154811061170b57fe5b90600052602060002090600a020160000160006101000a81548160ff0219169083600781111561173757fe5b0217905550336004828154811061174a57fe5b90600052602060002090600a020160000160016101000a81548173ffffffffffffffffffffffffffffffffffffffff021916908373ffffffffffffffffffffffffffffffffffffffff1602179055507f4f99376b0086484778324ace67e411e492882179dfdae93d3d8ea2b06927959e816040516117c8919061261c565b60405180910390a150565b6117db61088f565b61181a576040517f08c379a00000000000000000000000000000000000000000000000000000000081526004016118119061259a565b60405180910390fd5b600480828154811061182857fe5b90600052602060002090600a020160000160006101000a81548160ff0219169083600781111561185457fe5b0217905550336004828154811061186757fe5b90600052602060002090600a020160000160016101000a81548173ffffffffffffffffffffffffffffffffffffffff021916908373ffffffffffffffffffffffffffffffffffffffff16021790555033600482815481106118c457fe5b90600052602060002090600a020160080160006101000a81548173ffffffffffffffffffffffffffffffffffffffff021916908373ffffffffffffffffffffffffffffffffffffffff1602179055507f55c3a0d97ff0acf6fa17a844804c6f84d628e88c572c81125dbc048c0f64ec3b81604051611942919061261c565b60405180910390a150565b611961816000611ad690919063ffffffff16565b156119a1576040517f08c379a00000000000000000000000000000000000000000000000000000000081526004016119989061251a565b60405180910390fd5b6119b5816000611b2f90919063ffffffff16565b50565b6119c061088f565b6119ff576040517f08c379a00000000000000000000000000000000000000000000000000000000081526004016119f69061259a565b60405180910390fd5b600560048281548110611a0e57fe5b90600052602060002090600a020160000160006101000a81548160ff02191690836007811115611a3a57fe5b02179055503360048281548110611a4d57fe5b90600052602060002090600a020160000160016101000a81548173ffffffffffffffffffffffffffffffffffffffff021916908373ffffffffffffffffffffffffffffffffffffffff1602179055507f3a554daf1050288bc56a3cf986e9e6f852ea8b48812472d47d16415cf58d6e1c81604051611acb919061261c565b60405180910390a150565b60008260000160008373ffffffffffffffffffffffffffffffffffffffff1673ffffffffffffffffffffffffffffffffffffffff16815260200190815260200160002060009054906101000a900460ff16905092915050565b60018260000160008373ffffffffffffffffffffffffffffffffffffffff1673ffffffffffffffffffffffffffffffffffffffff16815260200190815260200160002060006101000a81548160ff0219169083151502179055505050565b828054600181600116156101000203166002900490600052602060002090601f016020900481019282601f10611bce57805160ff1916838001178555611bfc565b82800160010185558215611bfc579182015b82811115611bfb578251825591602001919060010190611be0565b5b509050611c099190611ce0565b5090565b60405180610160016040528060006007811115611c2657fe5b8152602001600073ffffffffffffffffffffffffffffffffffffffff1681526020016000815260200160608152602001606081526020016000815260200160008152602001600073ffffffffffffffffffffffffffffffffffffffff168152602001600073ffffffffffffffffffffffffffffffffffffffff168152602001600073ffffffffffffffffffffffffffffffffffffffff168152602001600073ffffffffffffffffffffffffffffffffffffffff1681525090565b611d0291905b80821115611cfe576000816000905550600101611ce6565b5090565b90565b600081359050611d14816127c3565b92915050565b600082601f830112611d2b57600080fd5b8135611d3e611d3982612664565b612637565b91508082526020830160208301858383011115611d5a57600080fd5b611d65838284612763565b50505092915050565b600081359050611d7d816127da565b92915050565b600060208284031215611d9557600080fd5b6000611da384828501611d05565b91505092915050565b600080600080600060a08688031215611dc457600080fd5b600086013567ffffffffffffffff811115611dde57600080fd5b611dea88828901611d1a565b955050602086013567ffffffffffffffff811115611e0757600080fd5b611e1388828901611d1a565b9450506040611e2488828901611d6e565b9350506060611e3588828901611d6e565b9250506080611e4688828901611d05565b9150509295509295909350565b600060208284031215611e6557600080fd5b6000611e7384828501611d6e565b91505092915050565b6000611e888383612310565b905092915050565b611e99816126f6565b82525050565b611ea8816126f6565b82525050565b6000611eb9826126a0565b611ec381856126c3565b935083602082028501611ed585612690565b8060005b85811015611f115784840389528151611ef28582611e7c565b9450611efd836126b6565b925060208a01995050600181019050611ed9565b50829750879550505050505092915050565b611f2c81612708565b82525050565b611f3b81612751565b82525050565b611f4a81612751565b82525050565b6000611f5b826126ab565b611f6581856126d4565b9350611f75818560208601612772565b611f7e816127a5565b840191505092915050565b6000611f94826126ab565b611f9e81856126e5565b9350611fae818560208601612772565b611fb7816127a5565b840191505092915050565b6000611fcf602a836126e5565b91507f50726f647563657220776974682074686973206164647265737320616c72656160008301527f64792065786973747321000000000000000000000000000000000000000000006020830152604082019050919050565b60006120356012836126e5565b91507f4e6f742061206469737472696275746f722e00000000000000000000000000006000830152602082019050919050565b6000612075600f836126e5565b91507f4e6f7420612070726f64756365722e00000000000000000000000000000000006000830152602082019050919050565b60006120b5602a836126e5565b91507f52657461696c657220776974682074686973206164647265737320616c72656160008301527f64792065786973747321000000000000000000000000000000000000000000006020830152604082019050919050565b600061211b600f836126e5565b91507f4e6f7420612072657461696c65722e00000000000000000000000000000000006000830152602082019050919050565b600061215b6025836126e5565b91507f4e65697468657220612072657461696c6572206e6f722061206469737472696260008301527f75746f722e0000000000000000000000000000000000000000000000000000006020830152604082019050919050565b60006121c1602d836126e5565b91507f4469737472696275746f7220776974682074686973206164647265737320616c60008301527f72656164792065786973747321000000000000000000000000000000000000006020830152604082019050919050565b6000610160830160008301516122336000860182611f32565b5060208301516122466020860182611e90565b5060408301516122596040860182612406565b50606083015184820360608601526122718282611f50565b9150506080830151848203608086015261228b8282611f50565b91505060a08301516122a060a0860182612406565b5060c08301516122b360c0860182612406565b5060e08301516122c660e0860182611e90565b506101008301516122db610100860182611e90565b506101208301516122f0610120860182611e90565b50610140830151612305610140860182611e90565b508091505092915050565b6000610160830160008301516123296000860182611f32565b50602083015161233c6020860182611e90565b50604083015161234f6040860182612406565b50606083015184820360608601526123678282611f50565b915050608083015184820360808601526123818282611f50565b91505060a083015161239660a0860182612406565b5060c08301516123a960c0860182612406565b5060e08301516123bc60e0860182611e90565b506101008301516123d1610100860182611e90565b506101208301516123e6610120860182611e90565b506101408301516123fb610140860182611e90565b508091505092915050565b61240f81612747565b82525050565b61241e81612747565b82525050565b6000602082019050818103600083015261243e8184611eae565b905092915050565b600060208201905061245b6000830184611f23565b92915050565b600061016082019050612477600083018e611f41565b612484602083018d611e9f565b612491604083018c612415565b81810360608301526124a3818b611f89565b905081810360808301526124b7818a611f89565b90506124c660a0830189612415565b6124d360c0830188612415565b6124e060e0830187611e9f565b6124ee610100830186611e9f565b6124fc610120830185611e9f565b61250a610140830184611e9f565b9c9b505050505050505050505050565b6000602082019050818103600083015261253381611fc2565b9050919050565b6000602082019050818103600083015261255381612028565b9050919050565b6000602082019050818103600083015261257381612068565b9050919050565b60006020820190508181036000830152612593816120a8565b9050919050565b600060208201905081810360008301526125b38161210e565b9050919050565b600060208201905081810360008301526125d38161214e565b9050919050565b600060208201905081810360008301526125f3816121b4565b9050919050565b60006020820190508181036000830152612614818461221a565b905092915050565b60006020820190506126316000830184612415565b92915050565b6000604051905081810181811067ffffffffffffffff8211171561265a57600080fd5b8060405250919050565b600067ffffffffffffffff82111561267b57600080fd5b601f19601f8301169050602081019050919050565b6000819050602082019050919050565b600081519050919050565b600081519050919050565b6000602082019050919050565b600082825260208201905092915050565b600082825260208201905092915050565b600082825260208201905092915050565b600061270182612727565b9050919050565b60008115159050919050565b6000819050612722826127b6565b919050565b600073ffffffffffffffffffffffffffffffffffffffff82169050919050565b6000819050919050565b600061275c82612714565b9050919050565b82818337600083830152505050565b60005b83811015612790578082015181840152602081019050612775565b8381111561279f576000848401525b50505050565b6000601f19601f8301169050919050565b600881106127c057fe5b50565b6127cc816126f6565b81146127d757600080fd5b50565b6127e381612747565b81146127ee57600080fd5b5056fea365627a7a7231582055393819a61ae84804c726e3322b6f4c7cb0faef25430034a5a59d8e830e8a9c6c6578706572696d656e74616cf564736f6c63430005100040",
  "source": "// SPDX-License-Identifier: GPL-3.0\r\npragma solidity >=0.4.21 <0.9.0;\r\npragma experimental ABIEncoderV2;\r\n\r\nimport \"./Producer.sol\";\r\nimport \"./Retailer.sol\";\r\nimport \"./Distributor.sol\";\r\n\r\n/**\r\n * @title SupplyChainLifecycle\r\n * @dev Deals with product life cycle statuses for all the parties involved.\r\n */\r\ncontract SupplyChainLifecycle is Producer, Retailer, Distributor {\r\n\r\n    enum Status { \r\n        PRODUCED, \r\n        READY_FOR_PICKUP, \r\n        PICKED_UP, \r\n        SHIPMENT_RELEASED, \r\n        RECEIVED_SHIPMENT, \r\n        READY_FOR_SALE, \r\n        PAID,\r\n        SOLD \r\n    }\r\n\r\n    //Define the product of this supply chain.\r\n    struct Product {\r\n        Status productStatus;\r\n        address currentStatusUser;\r\n        uint productId;\r\n        string productName;\r\n        string productDesc;\r\n        uint productPrice;\r\n        uint productQuantity;\r\n        address producerAddress;\r\n        address distributorAddress;\r\n        address retailerAddresses;\r\n        address consumerAddress;\r\n    }\r\n\r\n    Status constant initialStatus = Status.PRODUCED;\r\n    uint productID;\r\n\r\n    Product[] public products;\r\n\r\n    //Define events to emit based on statuses, linked by the product ID.\r\n    event Produced(uint productID);\r\n    event ReadyForPickup(uint productID);\r\n    event PickedUp(uint productID);\r\n    event ShipmentReleased(uint productID);\r\n    event ShipmentReceived(uint productID);\r\n    event ReadyForSale(uint productID);\r\n    event Paid(uint productID);\r\n    event Sold(uint productID);\r\n\r\n   constructor() public payable {\r\n       productID = 0;\r\n   }\r\n\r\n   /*Set of functions to update product statuses.*/\r\n   \r\n   //Accessible by - \r\n   //       - Producer\r\n    function produceProduct(string memory prodName, string memory prodDesc,\r\n                            uint prodPrice, uint prodQty, address producerAdd) public {\r\n        require(isProducer(), \"Not a producer.\");\r\n        products.push(Product({\r\n           productStatus: Status.PRODUCED,\r\n           currentStatusUser: producerAdd,\r\n           productId: productID,\r\n           productName: prodName,\r\n           productDesc: prodDesc,\r\n           productPrice: prodPrice,\r\n           productQuantity: prodQty,\r\n           producerAddress: producerAdd,\r\n           distributorAddress: address(0),\r\n           retailerAddresses: address(0),\r\n           consumerAddress: address(0)\r\n       })); \r\n\r\n       productID += 1;\r\n       emit Produced(productID);\r\n   }\r\n\r\n    //Accessible by -\r\n    //      - Producer\r\n    function markProductReadyForPickup(uint prodId) public {\r\n        require(isProducer(), \"Not a producer.\");\r\n        products[prodId].productStatus = Status.READY_FOR_PICKUP;\r\n        products[prodId].currentStatusUser = msg.sender;\r\n        emit ReadyForPickup(prodId);\r\n   }\r\n\r\n    //Accessible by -\r\n    //      - Distributor\r\n    function pickUpProduct(uint prodId) public {\r\n        require(isDistributor(), \"Not a distributor.\");\r\n        products[prodId].productStatus = Status.PICKED_UP;\r\n        products[prodId].currentStatusUser = msg.sender;\r\n        products[prodId].distributorAddress = msg.sender;\r\n        emit PickedUp(prodId);\r\n   }\r\n\r\n    //Accessible by -\r\n    //      - Retailer\r\n    //      - Distributor\r\n    function buyProduct(uint prodId) public payable {\r\n        require(isRetailer() || isDistributor(), \"Neither a retailer nor a distributor.\");\r\n        products[prodId].productStatus = Status.PAID;\r\n        products[prodId].currentStatusUser = msg.sender;\r\n        emit Paid(prodId);\r\n   }\r\n\r\n    //Accessible by -\r\n    //      - Distributor\r\n    function releaseProductShipment(uint prodId) public {\r\n        require(isDistributor(), \"Not a distributor.\");\r\n        products[prodId].productStatus = Status.SHIPMENT_RELEASED;\r\n        products[prodId].currentStatusUser = msg.sender;\r\n        emit ShipmentReleased(prodId);\r\n   } \r\n\r\n    //Accessible by -\r\n    //      - Retailer\r\n    function receiveProductShipment(uint prodId) public {\r\n        require(isRetailer(), \"Not a retailer.\");\r\n        products[prodId].productStatus = Status.RECEIVED_SHIPMENT;\r\n        products[prodId].currentStatusUser = msg.sender;\r\n        products[prodId].retailerAddresses = msg.sender;\r\n        emit ShipmentReceived(prodId);\r\n   }\r\n\r\n    //Accessible by -\r\n    //      - Retailer\r\n    function markProductReadyForSale(uint prodId) public {\r\n        require(isRetailer(), \"Not a retailer.\");\r\n        products[prodId].productStatus = Status.READY_FOR_SALE;\r\n        products[prodId].currentStatusUser = msg.sender;\r\n        emit ReadyForSale(prodId);\r\n   }\r\n\r\n   //Accessible by -\r\n    //      - Retailer\r\n    function sellProductToConsumer(uint prodId) public payable {\r\n        require(isRetailer(), \"Not a retailer.\");\r\n        products[prodId].productStatus = Status.SOLD;\r\n        products[prodId].currentStatusUser = msg.sender;\r\n        emit Sold(prodId);\r\n   }\r\n\r\n    /* Getters. */\r\n    \r\n    function getProductDetails(uint prodId) public view returns (Product memory) {\r\n       return products[prodId];\r\n    } \r\n\r\n    function getAllProductDetails() public view returns (Product[] memory) {\r\n       return products;\r\n    } \r\n}\r\n",
  "sourcePath": "D:\\blockchain-scm\\contracts\\SupplyChainLifecycle.sol",
  "compiler": {
    "name": "solc",
    "version": "0.5.16+commit.9c3226ce.Emscripten.clang"
  },
  "schemaVersion": "3.4.14",
  "updatedAt": "2023-06-07T16:09:08.569Z",
  "networkType": "ethereum",
  "devdoc": {
    "details": "Deals with product life cycle statuses for all the parties involved.",
    "methods": {},
    "title": "SupplyChainLifecycle"
  },
  "userdoc": {
    "methods": {}
  }
}